S01000006F6E6C696E6531332E737265632B
S11300000C942A000C9458030C9482030C94AD03B2
S11300100C9447000C9447000C9447000C94470040
S11300200C9447000C94D7030C9447000C9447009D
S11300300C9447000C9447000C9447000C94470020
S11300400C9447000C9447000C9447000C94470010
S11300500C94470011241FBECFE5D8E0DEBFCDBF0E
S113006010E0A0E6B0E0E6E0F8E002C005900D92F2
S1130070A838B107D9F720E0A8E8B0E001C01D9284
S1130080AB38B207E1F70E944A010C9401040C94C6
S1130090000010928A00089581E080938A000895F8
S11300A082E080938A0008950E944F010E943703E2
S11300B069E470E080E00E9443036CE470E080E057
S11300C00E94430360E570E080E00E94430380E007
S11300D00E94E10281E00E94E10282E00E94E102CA
S11300E01092890010928800089560E080E00E94D8
S11300F02D0260E081E00E942D0260E082E00E9417
S11301002D0260E083E00C942D0280E00E94AC029A
S113011081E00E94AC0260E082E00E942D0260E077
S113012083E00E942D022FEF83EC99E02150804060
S11301309040E1F700C00000089582E00E94AC0204
S113014083E00E94AC0260E080E00E942D0260E047
S113015081E00E942D022FEF83EC99E02150804032
S11301609040E1F700C00000089580E00E94AC02D6
S113017081E00E94AC0282E00E94AC0283E00E9413
S1130180AC022FEF83EC99E0215080409040E1F7DE
S113019000C000000895CF93809189008130F9F068
S11301A030F08230B1F1833009F44CC071C08091D9
S11301B08A00813079F050F0823089F40E94B500D1
S11301C083E0809389001092880009C00E94850012
S11301D081E003C00E949D0082E0809389008091A9
S11301E08A00813091F058F0823099F40E94B50071
S11301F083E08093890081E0809388000AC00E9494
S1130200850081E08093890004C00E9475001092EB
S11302108900C0918A00C13081F050F0C23091F45D
S11302200E94B50083E080938900C09388000AC0CF
S11302300E9475001092890005C00E949D0082E012
S11302408093890080918A00813041F018F08230D7
S113025059F01EC00E94B50081E003C00E94B500A1
S113026082E08093890014C0C0918800C11105C048
S11302700E947500109289000BC0C23019F40E94CC
S11302809D0004C0C13021F40E948500C093890000
S1130290CF9108950E9454000E94CB00FDCFE8E660
S11302A0F0E040E081E090E05191242F2770342F5A
S11302B0369536953695513009F443C020F05230C6
S11302C009F482C0C5C0323001F1333061F13130FC
S11302D071F05AB3BC0102C0660F771F2A95E2F78A
S11302E09B01352F322B3ABB3BB320953DC057B30E
S11302F0BC0102C0660F771F2A95E2F79B01352FD8
S1130300322B37BB38B320953EC054B3BC0102C076
S1130310660F771F2A95E2F79B01352F322B34BBEA
S113032035B320953FC051B3BC0102C0660F771F9F
S11303302A95E2F79B01352F322B31BB32B320953E
S113034041C0323011F1333081F1313079F05AB398
S1130350BC0102C0660F771F2A95E2F79B01209526
S1130360352F32233ABB3BB3232342C057B3BC01DE
S113037002C0660F771F2A95E2F79B012095352F5F
S1130380322337BB38B3232343C054B3BC0102C068
S1130390660F771F2A95E2F79B012095352F3223AC
S11303A034BB35B3232325BB53C051B3BC0102C0B6
S11303B0660F771F2A95E2F79B012095352F32238C
S11303C031BB32B3232343C0323021F1333089F1BE
S11303D0313081F05AB3BC0102C0660F771F2A95F1
S11303E0E2F79B01362F309535233ABB3BB3232BE1
S11303F02BBB2EC057B3BC0102C0660F771F2A95D2
S1130400E2F79B01362F3095352337BB38B3232BC6
S113041028BB1EC054B3BC0102C0660F771F2A95C7
S1130420E2F79B01362F3095352334BB35B3232BAC
S1130430BACF51B3BC0102C0660F771F2A95E2F709
S11304409B01362F3095352331BB32B3232B22BB8E
S11304504F5F403209F028CF0895982F9770869502
S1130460869586956130C1F5813091F028F082300F
S1130470D9F0833029F108954BB321E030E0B9017C
S113048002C0660F771F9A95E2F7CB01842B38C020
S113049048B321E030E0B90102C0660F771F9A9596
S11304A0E2F7CB01842B3AC045B321E030E0B90137
S11304B002C0660F771F9A95E2F7CB01842B3CC0EC
S11304C042B321E030E0B90102C0660F771F9A956C
S11304D0E2F7CB01842B3EC08130A1F028F08230BA
S11304E0F9F0833059F108954BB321E030E0B901BC
S11304F002C0660F771F9A95E2F7CB01809584239B
S11305008BBB089548B321E030E0B90102C0660F07
S1130510771F9A95E2F7CB018095842388BB0895D1
S113052045B321E030E0B90102C0660F771F9A9508
S1130530E2F7CB018095842385BB089542B321E083
S113054030E0B90102C0660F771F9A95E2F7CB013C
S11305508095842382BB0895282F277086958695DD
S11305608695813081F028F08230B9F08330F9F03B
S113057008953BB381E090E001C0880F2A95EAF723
S113058083278BBB089538B381E090E001C0880FC6
S11305902A95EAF7832788BB089535B381E090E074
S11305A001C0880F2A95EAF7832785BB089532B3E3
S11305B081E090E001C0880F2A95EAF7832782BB87
S11305C00895813039F018F0823039F008958BB7EE
S11305D0806405C08BB7806802C08BB780628BBF14
S11305E008958130F1F018F08230B1F1089561304E
S11305F049F028F0623061F0633069F0089585B7FE
S11306008E7F02C085B7816085BF85B78D7F22C08C
S113061085B78E7F02C085B7816085BF85B782604C
S113062019C0613049F028F0623061F0633069F03C
S1130630089585B78B7F02C085B7846085BF85B771
S1130640877F08C085B78B7F02C085B7846085BF6C
S113065085B7886085BF0895623029F0633019F446
S113066084B7806402C084B78F7B84BF089562E03E
S113067080E00E94F10262E081E00E94F10262E007
S113068082E00C94F102813049F018F0823059F084
S113069008957093650060936400089570936300F7
S11306A06093620008957093610060936000089500
S11306B01F920F920FB60F9211242F933F934F93D3
S11306C05F936F937F938F939F93AF93BF93EF93B6
S11306D0FF93E0916400F0916500E230F10509F0C8
S11306E00995FF91EF91BF91AF919F918F917F9168
S11306F06F915F914F913F912F910F900FBE0F908B
S11307001F90189578941F920F920FB60F92112490
S11307102F933F934F935F936F937F938F939F9305
S1130720AF93BF93EF93FF93E0916200F091630066
S1130730E230F10509F00995FF91EF91BF91AF9176
S11307409F918F917F916F915F914F913F912F91E5
S11307500F900FBE0F901F9018951F920F920FB617
S11307600F9211242F933F934F935F936F937F9333
S11307708F939F93AF93BF93EF93FF93E0916000A8
S1130780F0916100E230F10509F00995FF91EF91D4
S1130790BF91AF919F918F917F916F915F914F9195
S11307A03F912F910F900FBE0F901F9018951F929D
S11307B00F920FB60F9211242F933F934F935F9391
S11307C06F937F938F939F93AF93BF93EF93FF9315
S11307D0E0916600F0916700E230F10509F00995B7
S11307E0FF91EF91BF91AF919F918F917F916F9105
S11307F05F914F913F912F910F900FBE0F901F90DB
S10908001895F894FFCFE7
S113080602000200020002000000000000000000D6
S113081600000000000000000202020000000000C8
S10B08260000020200000100C1
S9030000FC
